:020000040800F2
:10000000000002209D1C0008611D00086F1D0008F3
:10001000751D00087B1D0008811D00080000000000
:10002000000000000000000000000000871D000824
:10003000951D000800000000A31D0008B11D000868
:10004000ED1C0008ED1C0008ED1C0008ED1C00086C
:10005000ED1C0008C11D0008CF1D0008ED1C0008A4
:10006000DD1D0008ED1C0008ED1C0008ED1C00085B
:10007000ED1C0008ED1C0008ED1C0008ED1C00083C
:10008000ED1D0008011E0008ED1C0008ED1C000815
:10009000151E0008ED1C0008ED1C0008ED1C0008F2
:1000A000ED1C0008ED1C0008ED1C0008ED1C00080C
:1000B000291E0008411E0008ED1C0008591E0008FA
:1000C000ED1C0008ED1C0008ED1C0008ED1C0008EC
:1000D000ED1C0008ED1C0008ED1C0008ED1C0008DC
:1000E000ED1C0008ED1C0008ED1C0008ED1C0008CC
:1000F000ED1C0008ED1C0008ED1C0008ED1C0008BC
:10010000ED1C0008ED1C0008ED1C0008ED1C0008AB
:10011000ED1C0008ED1C0008ED1C0008ED1C00089B
:10012000ED1C0008ED1C0008ED1C0008ED1C00088B
:10013000ED1C00080000000000000000ED1C00089D
:100140006D1E0008ED1C0008ED1C0008811E000853
:10015000ED1C0008ED1C0008ED1C0008ED1C00085B
:10016000ED1C0008ED1C0008ED1C0008ED1C00084B
:10017000ED1C0008ED1C000800000000000000005D
:08018000ED1C0008ED1C000855
:1001C00010B5054C237833B9044B13B10448AFF391
:1001D00000800123237010BDD81C00200000000007
:1001E00020FC00080C4B43B10C480D4910B5AFF38F
:1001F00000800C48036823B910BD0A48036833B96E
:100200007047094B002BF7D0BDE810401847064B4C
:10021000002BF5D0184700BF0000000020FC0008AC
:10022000DC1C0020D81C00200000000081F00041F0
:1002300002E000BF83F0004330B54FEA41044FEACB
:10024000430594EA050F08BF90EA020F1FBF54EA66
:10025000000C55EA020C7FEA645C7FEA655C00F002
:10026000E2804FEA5454D4EB5555B8BF6D420CDDD3
:100270002C4480EA020281EA030382EA000083EA56
:10028000010180EA020281EA0303362D88BF30BDF6
:1002900011F0004F4FEA01314FF4801C4CEA11314C
:1002A00002D0404261EB410113F0004F4FEA0333AB
:1002B0004CEA133302D0524263EB430394EA050F36
:1002C00000F0A780A4F10104D5F1200E0DDB02FAA5
:1002D0000EFC22FA05F2801841F1000103FA0EF239
:1002E000801843FA05F359410EE0A5F120050EF1FF
:1002F000200E012A03FA0EFC28BF4CF0020C43FA30
:1003000005F3C01851EBE37101F0004507D54FF03C
:10031000000EDCF1000C7EEB00006EEB0101B1F58C
:10032000801F1BD3B1F5001F0CD349085FEA3000D2
:100330004FEA3C0C04F101044FEA445212F5800FDD
:1003400080F09A80BCF1004F08BF5FEA500C50F17A
:10035000000041EB045141EA050130BD5FEA4C0C5D
:10036000404141EB010111F4801FA4F10104E9D1E6
:1003700091F0000F04BF01460020B1FA81F308BFDD
:100380002033A3F10B03B3F120020CDA0C3208DDA9
:1003900002F1140CC2F10C0201FA0CF021FA02F184
:1003A0000CE002F11402D8BFC2F1200C01FA02F1F4
:1003B00020FA0CFCDCBF41EA0C019040E41AA2BF19
:1003C00001EB0451294330BD6FEA04041F3C1CDAE1
:1003D0000C340EDC04F11404C4F1200220FA04F001
:1003E00001FA02F340EA030021FA04F345EA0301AB
:1003F00030BDC4F10C04C4F1200220FA02F001FA6D
:1004000004F340EA0300294630BD21FA04F02946EE
:1004100030BD94F0000F83F4801306BF81F4801187
:100420000134013D4EE77FEA645C18BF7FEA655CFA
:1004300029D094EA050F08BF90EA020F05D054EACC
:10044000000C04BF1946104630BD91EA030F1EBFD1
:100450000021002030BD5FEA545C05D140004941D5
:1004600028BF41F0004130BD14F580043CBF01F5C8
:10047000801130BD01F0004545F0FE4141F47001AE
:100480004FF0000030BD7FEA645C1ABF1946104689
:100490007FEA655C1CBF0B46024650EA013406BF8A
:1004A00052EA033591EA030F41F4002130BD00BF49
:1004B00090F0000F04BF0021704730B54FF4806406
:1004C00004F132044FF000054FF0000150E700BF87
:1004D00090F0000F04BF0021704730B54FF48064E6
:1004E00004F1320410F0004548BF40424FF00001D3
:1004F0003EE700BF42004FEAE2014FEA31014FEA16
:1005000002701FBF12F07F4393F07F4F81F0605164
:10051000704792F0000F14BF93F07F4F704730B5D3
:100520004FF4607401F0004521F0004120E700BF66
:1005300050EA010208BF704730B54FF000050AE0ED
:1005400050EA010208BF704730B511F0004502D5EE
:10055000404261EB41014FF4806404F132045FEAF0
:10056000915C3FF4DCAE4FF003025FEADC0C18BF95
:1005700003325FEADC0C18BF033202EBDC02C2F18B
:10058000200300FA03FC20FA02F001FA03FE40EA1D
:100590000E0021FA02F11444C1E600BF70B54FF01D
:1005A000FF0C4CF4E06C1CEA11541DBF1CEA1355FF
:1005B00094EA0C0F95EA0C0F00F0DEF82C4481EA67
:1005C000030621EA4C5123EA4C5350EA013518BF87
:1005D00052EA033541F4801143F4801338D0A0FB74
:1005E00002CE4FF00005E1FB02E506F00042E0FB21
:1005F00003E54FF00006E1FB03569CF0000F18BF27
:100600004EF0010EA4F1FF04B6F5007F64F54074CE
:1006100004D25FEA4E0E6D4146EB060642EAC62161
:1006200041EA55514FEAC52040EA5E504FEACE2ECE
:10063000B4F1FD0C88BFBCF5E06F1ED8BEF1004FD1
:1006400008BF5FEA500E50F1000041EB045170BD4D
:1006500006F0004646EA010140EA020081EA030191
:10066000B4EB5C04C2BFD4EB0C0541EA045170BD8D
:1006700041F480114FF0000E013C00F3AB8014F107
:10068000360FDEBF002001F0004170BDC4F1000450
:10069000203C35DA0C341BDC04F11404C4F12005D1
:1006A00000FA05F320FA04F001FA05F240EA02002C
:1006B00001F0004221F0004110EBD37021FA04F662
:1006C00042EB06015EEA430E08BF20EAD37070BD1C
:1006D000C4F10C04C4F1200500FA04F320FA05F07B
:1006E00001FA04F240EA020001F0004110EBD3707D
:1006F00041F100015EEA430E08BF20EAD37070BDED
:10070000C4F1200500FA05F24EEA020E20FA04F3C5
:1007100001FA05F243EA020321FA04F001F0004174
:1007200021FA04F220EA020000EBD3705EEA430EE5
:1007300008BF20EAD37070BD94F0000F0FD101F014
:100740000046400041EB010111F4801F08BF013C4D
:10075000F7D041EA060195F0000F18BF704703F08B
:100760000046520043EB030313F4801F08BF013D12
:10077000F7D043EA0603704794EA0C0F0CEA1355CE
:1007800018BF95EA0C0F0CD050EA410618BF52EA88
:100790004306D1D181EA030101F000414FF000008E
:1007A00070BD50EA410606BF1046194652EA43069C
:1007B00019D094EA0C0F02D150EA013613D195EA10
:1007C0000C0F05D152EA03361CBF104619460AD158
:1007D00081EA030101F0004141F0FE4141F4700162
:1007E0004FF0000070BD41F0FE4141F4780170BD52
:1007F00070B54FF0FF0C4CF4E06C1CEA11541DBFB7
:100800001CEA135594EA0C0F95EA0C0F00F0A7F8B8
:10081000A4EB050481EA030E52EA03354FEA0131E5
:1008200000F088804FEA03334FF0805545EA1313F8
:1008300043EA12634FEA022245EA111545EA1065C0
:100840004FEA00260EF000419D4208BF964244F157
:10085000FD0404F5407402D25B084FEA3202B61A76
:1008600065EB03055B084FEA32024FF480104FF44A
:10087000002CB6EB020E75EB030E22BFB61A7546BE
:1008800040EA0C005B084FEA3202B6EB020E75EB51
:10089000030E22BFB61A754640EA5C005B084FEAB9
:1008A0003202B6EB020E75EB030E22BFB61A754686
:1008B00040EA9C005B084FEA3202B6EB020E75EB91
:1008C000030E22BFB61A754640EADC0055EA060E52
:1008D00018D04FEA051545EA16754FEA06164FEA95
:1008E000C30343EA52734FEAC2025FEA1C1CC0D141
:1008F00011F4801F0BD141EA00014FF000004FF0CE
:10090000004CB6E711F4801F04BF01430020B4F18E
:10091000FD0C88BFBCF5E06F3FF6AFAEB5EB030C46
:1009200004BFB6EB020C5FEA500C50F1000041EB43
:10093000045170BD0EF0004E4EEA113114EB5C0410
:10094000C2BFD4EB0C0541EA045170BD41F48011E3
:100950004FF0000E013C90E645EA060E8DE60CEAEB
:10096000135594EA0C0F08BF95EA0C0F3FF43BAF08
:1009700094EA0C0F0AD150EA01347FF434AF95EABF
:100980000C0F7FF425AF104619462CE795EA0C0FA3
:1009900006D152EA03353FF4FDAE1046194622E770
:1009A00050EA410618BF52EA43067FF4C5AE50EA4A
:1009B00041047FF40DAF52EA43057FF4EBAE12E73A
:1009C0004FF0FF3C06E000BF4FF0010C02E000BF1B
:1009D0004FF0010C4DF804CD4FEA410C7FEA6C5CFE
:1009E0004FEA430C18BF7FEA6C5C1BD001B050EAA1
:1009F000410C0CBF52EA430C91EA030F02BF90EA8C
:100A0000020F0020704710F1000F91EA030F58BF4A
:100A1000994208BF90422CBFD8176FEAE37040F0AC
:100A2000010070474FEA410C7FEA6C5C02D150EA4A
:100A3000013C07D14FEA430C7FEA6C5CD6D152EA05
:100A4000033CD3D05DF8040B704700BF84461046CA
:100A500062468C461946634600E000BF01B5FFF7C9
:100A6000B7FF002848BF10F1000F01BD4DF808ED99
:100A7000FFF7F4FF0CBF012000205DF808FB00BF6A
:100A80004DF808EDFFF7EAFF34BF012000205DF8C4
:100A900008FB00BF4DF808EDFFF7E0FF94BF012011
:100AA00000205DF808FB00BF4DF808EDFFF7CEFF12
:100AB00094BF012000205DF808FB00BF4DF808ED51
:100AC000FFF7C4FF34BF012000205DF808FB00BF22
:100AD0004FEA4102B2F1E04324BFB3F5001CDCF160
:100AE000FE5C0DD901F0004C4FEAC0024CEA507098
:100AF000B2F1004F40EB830008BF20F001007047C7
:100B000011F0804F21D113F13872BCBF01F00040C9
:100B1000704741F480114FEA5252C2F11802C2F1FB
:100B2000200C10FA0CF320FA02F018BF40F001007C
:100B30004FEAC1234FEAD32303FA0CFC40EA0C002E
:100B400023FA02F34FEA4303CCE77FEA625307D16B
:100B500050EA01331EBF4FF0FE4040F440007047A2
:100B600001F0004040F0FE4040F40000704700BF3C
:100B700053B94AB9002908BF00281CBF4FF0FF3104
:100B80004FF0FF3000F07AB9ADF1080C6DE904CEFA
:100B900000F006F8DDF804E0DDE9022304B0704758
:100BA0002DE9F0478C460D460446089E002B51D196
:100BB0008A4217466DD9B2FA82FEBEF1000F0BD001
:100BC000CEF1200C01FA0EF520FA0CFC02FA0EF719
:100BD0004CEA050C00FA0EF44FEA174A250CBCFB50
:100BE000FAF81FFA87F90AFB18CC45EA0C4508FB0E
:100BF00009F3AB420AD9ED1908F1FF3280F02381E5
:100C0000AB4240F22081A8F102083D44ED1AA4B2A3
:100C1000B5FBFAF00AFB105544EA054400FB09F95C
:100C2000A14509D9E41900F1FF3380F00A81A145FB
:100C300040F2078102383C44A4EB090440EA084032
:100C40000021002E61D024FA0EF40023346073607A
:100C5000BDE8F0878B4207D9002E54D0002186E8EA
:100C600021000846BDE8F087B3FA83F1002940F07F
:100C70008E80AB4202D3824200F2FA80841A65EB86
:100C800003050120AC46002E3FD086E81010BDE8D9
:100C9000F08712B90127B7FBF2F7B7FA87FEBEF16A
:100CA000000F34D1EB1B3A0C1FFA87FC0121B3FB78
:100CB000F2F8250C02FB183345EA03450CFB08F358
:100CC000AB4207D9ED1908F1FF3002D2AB4200F276
:100CD000D1808046ED1AA3B2B5FBF2F002FB1055AD
:100CE00043EA05440CFB00FCA44507D9E41900F1D4
:100CF000FF3302D2A44500F2B8801846A4EB0C04DE
:100D000040EA08409DE731463046BDE8F087CEF125
:100D1000200405FA0EF307FA0EF720FA04F83A0C4D
:100D200025FA04F448EA0308B4FBF2F14FEA184547
:100D300002FB11441FFA87FC45EA044501FB0CF352
:100D4000AB4200FA0EF409D9ED1901F1FF3080F041
:100D50008A80AB4240F2878002393D44EB1A1FFA89
:100D600088F5B3FBF2F002FB103345EA034500FBC4
:100D70000CF3AB4207D9ED1900F1FF386FD2AB424B
:100D80006DD902383D44EB1A40EA01418FE7C1F1C9
:100D9000200722FA07F88B4005FA01F448EA03031A
:100DA00020FA07FE4FEA134CFD404EEA040EB5FB55
:100DB000FCF94FEA1E440CFB19551FFA83F844EA6C
:100DC000054509FB08F4AC4202FA01F200FA01FA07
:100DD00008D9ED1809F1FF3043D2AC4241D9A9F14D
:100DE00002091D442D1B1FFA8EFEB5FBFCF00CFB07
:100DF00010554EEA054400FB08F8A04507D9E41851
:100E000000F1FF3529D2A04527D902381C4440EA19
:100E10000940A4EB0804A0FB02894C45C6464D4698
:100E200015D312D056B1BAEB0E0364EB050404FAE5
:100E300007F7CB401F43CC40376074600021BDE80A
:100E4000F0871846F8E69046E0E6C245EAD2B8EBED
:100E5000020E69EB03050138E4E72846D7E7404670
:100E600091E78146BEE7014678E702383C4445E712
:100E7000084608E7A8F102083D442BE7704700BF89
:100E8000844641EA000313F003036DD1403A41D395
:100E900051F8043B40F8043B51F8043B40F8043B54
:100EA00051F8043B40F8043B51F8043B40F8043B44
:100EB00051F8043B40F8043B51F8043B40F8043B34
:100EC00051F8043B40F8043B51F8043B40F8043B24
:100ED00051F8043B40F8043B51F8043B40F8043B14
:100EE00051F8043B40F8043B51F8043B40F8043B04
:100EF00051F8043B40F8043B51F8043B40F8043BF4
:100F000051F8043B40F8043B51F8043B40F8043BE3
:100F1000403ABDD2303211D351F8043B40F8043B83
:100F200051F8043B40F8043B51F8043B40F8043BC3
:100F300051F8043B40F8043B103AEDD20C3205D393
:100F400051F8043B40F8043B043AF9D2043208D08B
:100F5000D2071CBF11F8013B00F8013B01D30B88FD
:100F600003806046704700BF082A13D38B078DD0DB
:100F700010F003038AD0C3F10403D21ADB071CBFAD
:100F800011F8013B00F8013B80D331F8023B20F817
:100F9000023B7BE7043AD9D3013A11F8013B00F850
:100FA000013BF9D20B7803704B7843708B788370D8
:100FB00060467047000000000000000000000000D4
:100FC00090F800F06DE9024520F007016FF0000C89
:100FD00010F0070491F820F040F049804FF0000431
:100FE0006FF00700D1E9002391F840F000F108000C
:100FF00082FA4CF2A4FA8CF283FA4CF3A2FA8CF344
:101000004BBBD1E9022382FA4CF200F10800A4FAAA
:101010008CF283FA4CF3A2FA8CF3E3B9D1E90423FE
:1010200082FA4CF200F10800A4FA8CF283FA4CF335
:10103000A2FA8CF37BB9D1E9062301F1200182FAEF
:101040004CF200F10800A4FA8CF283FA4CF3A2FAF5
:101050008CF3002BC6D0002A04BF04301A4612BA03
:10106000B2FA82F2FDE8024500EBD2007047D1E906
:10107000002304F00305C4F100004FEAC50514F095
:10108000040F91F840F00CFA05F562EA05021CBF66
:1010900063EA050362464FF00004A9E70000000080
:1010A00001F0FF01102A2BDB10F0070F08D010F819
:1010B000013B013A8B422DD010F0070F42B3F6D11D
:1010C000F0B441EA012141EA014122F007047FF036
:1010D00000070023F0E80256083C85EA010586EA8D
:1010E000010685FA47F5A3FA87F586FA47F6A5FAC9
:1010F00087F68EB9EED1F0BC01F0FF0102F00702D5
:1011000032B110F8013B013A83EA010313B1F8D17F
:101110000020704701387047002D06BF3546033860
:10112000073815F0010F07D1013015F4807F02BF99
:10113000013015F4C03F0130F0BC0138704700BFEA
:101140004FEA410C7FEA6C5C02D150EA013C0AD1C3
:101150004FEA430C7FEA6C5C02D152EA033C02D1B5
:101160004FF0000070474FF0010070474FEA410216
:1011700012F5001215D211D56FF47873B3EB6252E9
:1011800012D94FEAC12343F0004343EA505311F010
:10119000004F23FA02F018BF404270474FF00000A2
:1011A000704750EA013005D111F0004008BF6FF0E0
:1011B000004070474FF00000704700BF80B500AF9F
:1011C0000AF0E2FC294B1B6818460AF025FF274B62
:1011D0001B68274A5A61254B1B68264A9A61234B94
:1011E0001B68254A1A61214B1B68214A1A621F4B52
:1011F0001B68204A5A621D4B1B681F4ADA611B4B51
:101200001B68732283F82920184B1B68652283F81A
:101210002A20164B1B68752283F82B20134B1B6862
:10122000732283F82D20114B1B68652283F82E2032
:101230000E4B1B68752283F82F200C4B1B68002275
:1012400083F83520094B1B6801221A73074B1B6872
:10125000012283F82820054B1B6818460AF074FE0B
:1012600000F00CF800F011F800BF80BDC0110020A4
:10127000488AC83A6F12833BA69B443B80B500AFB7
:1012800001200AF01FFF00BF80BD80B500AF002025
:101290000AF03EFF00BF80BD80B500AF184B194A71
:1012A0001A60174B20225A60154B00229A60144B8B
:1012B0000022DA60124B4FF400321A61104B4FF4E7
:1012C00080025A610E4B00221A760D4B00225A768C
:1012D0000B4B00229A760A4B0022DA76084B00224A
:1012E0001A77074B00225A77054802F031FE034671
:1012F000002B03D05021044800F03EFC00BF80BD0D
:10130000782B00200064004038FC000880B500AF56
:10131000184B194A1A60174B20225A60154B0022AD
:101320009A60144B0022DA60124B4FF400321A61BB
:10133000104B4FF480025A610E4B00221A760D4B6F
:1013400000225A760B4B00229A760A4B0022DA765C
:10135000084B00221A77074B00225A77054802F003
:10136000F7FD0346002B03D06621044800F004FC7F
:1013700000BF80BD502B00200068004038FC0008F2
:1013800080B58AB000AF78607B681B684E4A934294
:1013900041D14E4B1B6801334C4A13604B4B1B68C9
:1013A000012B0DD100233B61494A494B1B6C43F093
:1013B00000731364464B1B6C03F000733B613B6985
:1013C0004FF480737B610223BB610123FB61032324
:1013D0003B6209237B6207F1140319463D4803F081
:1013E0004FFD4FF400737B610223BB610023FB615F
:1013F00003233B6209237B6207F114031946354836
:1014000003F03EFD00220021142003F0C0F9142057
:1014100003F0D9F953E07B681B682F4A93424ED101
:101420000023FB602A4A2A4B1B6C43F08063136441
:10143000274B1B6C03F08063FB60FB68234B1B682E
:101440000133224A1360214B1B68012B0DD100236D
:10145000BB601F4A1E4B1B6C43F0007313641C4B94
:101460001B6C03F00073BB60BB684FF480537B615F
:101470000223BB610123FB6103233B6209237B62DF
:1014800007F114031946134803F0FAFC4FF4005314
:101490007B610223BB610023FB6103233B620923C1
:1014A0007B6207F1140319460A4803F0E9FC0022A5
:1014B0000021402003F06BF9402003F084F900BFC5
:1014C0002837BD4680BD00BF00640040D42A0020FC
:1014D00000380240000402400068004080B582B03D
:1014E00000AF00237B60104A0F4B1B6B43F40013CB
:1014F00013630D4B1B6B03F400137B607B680022AE
:101500000021102003F043F9102003F05CF90022C1
:101510000021112003F03BF9112003F054F900BF22
:101520000837BD4680BD00BF0038024080B58AB094
:1015300000AF00233B615C4A5B4B1B6B43F0040331
:101540001363594B1B6B03F004033B613B6900239E
:10155000FB60554A544B1B6B43F080031363524BA3
:101560001B6B03F08003FB60FB680023BB604E4AEB
:101570004D4B1B6B43F0010313634B4B1B6B03F091
:101580000103BB60BB6800237B60474A464B1B6B73
:1015900043F002031363444B1B6B03F002037B60B5
:1015A0007B6800233B60404A3F4B1B6B43F00803C2
:1015B00013633D4B1B6B03F008033B603B68002249
:1015C0004FF4C051394803F0F5FD42F2FB737B61E3
:1015D0000323BB610023FB6107F114031946334861
:1015E00003F04EFC04237B61314BBB610123FB61A3
:1015F00007F1140319462D4803F042FC01237B61D7
:101600002C4BBB610023FB6107F1140319462A48E8
:1016100003F036FC40F2FE537B610323BB610023E1
:10162000FB6107F114031946234803F029FC4CF62B
:1016300027437B610323BB610023FB6107F1140394
:1016400019461E4803F01CFC4FF4C0537B61012374
:10165000BB610023FB6100233B6207F114031946C1
:10166000124803F00DFC04237B610323BB610023BC
:10167000FB6107F114031946114803F001FC002235
:101680000421062003F083F8062003F09CF80022D2
:101690000221082003F07BF8082003F094F800BF33
:1016A0002837BD4680BD00BF003802400008024018
:1016B0000000111000003110000002400004024040
:1016C000000C024080B500AF134B144A1A60124B55
:1016D000134A5A60104B00229A600F4B0022DA60C6
:1016E0000D4B4FF480421A610B4B00225A610A4B9A
:1016F00000229A61084B0022DA61074B00221A622D
:10170000054803F095FD0346002B03D04F21054803
:1017100000F032FA00BF80BD002C002000540040D1
:10172000801A060048FC000880B588B000AF7860D9
:101730007B681B68474A934240F08880C023FB6067
:1017400012233B6101237B610323BB610423FB6103
:1017500007F10C031946404803F092FB0023BB60DD
:101760003E4A3E4B1B6C43F4001313643B4B1B6C13
:1017700003F40013BB60BB68394B3A4A1A60384B1C
:101780004FF000725A60364B40229A60344B002270
:10179000DA60334B4FF480621A61314B00225A6198
:1017A0002F4B00229A612E4B4FF48072DA612C4B42
:1017B00000221A622A4B00225A62294803F056F886
:1017C0000346002B03D07A21274800F0D5F97B6827
:1017D000234A5A63224A7B689363244B244A1A6043
:1017E000224B4FF000725A60204B00229A601F4B30
:1017F0000022DA601D4B4FF480621A611B4B0022FD
:101800005A611A4B00229A61184B4FF48072DA61C8
:10181000164B00221A62154B00225A62134803F03D
:1018200025F80346002B03D08C210F4800F0A4F9C3
:101830007B680E4A9A630D4A7B68936300220021FD
:101840001F2002F0A4FF1F2002F0BDFF00BF2037C1
:10185000BD4680BD005400400004024000380240F4
:10186000A02B0020A060024048FC0008542C00205F
:10187000886002402DE9B04388B006AF02F0D4FA88
:1018800000F084F8FFF752FEFFF728FE00F0C6F9DB
:1018900000F00AFCFFF700FDFFF738FDFFF712FF2D
:1018A00000F02EFB00F074FB062002F0A6FF0720DC
:1018B00002F0A3FF082002F0A0FF092002F09DFF24
:1018C0000A2002F09AFF1F2002F097FF1D2002F06D
:1018D00094FF00224FF40061274803F06BFC0023C3
:1018E0003B60264A254B1B6B43F480531363234B09
:1018F0001B6B03F480533B603B680023FB7109F0D2
:101900003FFD0346FB7109F01AFA0222F5210A2075
:1019100009F0D0FB0346BB71FFF750FC01211848CA
:1019200009F0F4FB164BDB681846FEF7E3FD0446AE
:101930000D46134B1B691846FEF7DCFD80468946B1
:101940000F4B5B691846FEF7D5FD02460B46CDE905
:101950000423CDE90289CDE900450A4A40210A481D
:101960000AF052FF0848FFF72BFB03469BB21946CB
:10197000054800F053FCF5E700080240003802403B
:10198000D42C002058FC0008B82E002080B598B058
:1019900000AF0023BB603F4A3E4B1B6C43F08053BB
:1019A00013643C4B1B6C03F08053BB60BB6800238B
:1019B0007B60394A384B1B6843F480431360364BD5
:1019C0001B6803F480437B607B6809233B634FF40F
:1019D00080337B6301237B640223BB644FF4800369
:1019E000FB6404233B65A8237B650223BB650723B7
:1019F000FB6507F13003184606F0FEFC0346002B9A
:101A000004D04FF48971254800F0B6F80F23FB612C
:101A100002233B6200237B624FF4A053BB624FF46E
:101A2000A053FB6207F11C030521184606F026FFB0
:101A30000346002B04D04FF49071184800F09CF836
:101A40000223FB604FF40073BB6107F10C031846DF
:101A500007F0EEF80346002B04D040F227110F48A0
:101A600000F08AF807F0C4F802460D4BA3FB0223EE
:101A70009B09184602F0B5FE042002F0CDFE0022BC
:101A800000214FF0FF3002F082FE00BF6037BD46FC
:101A900080BD00BF00380240007000406CFC0008B0
:101AA000D34D621080B400AF034B00221A6000BF18
:101AB000BD465DF8047B7047C41100202DE9B04F8E
:101AC00090B00CAF0121294809F020FB274BDB68BF
:101AD0001846FEF70FFD04460D46244B1B691846B9
:101AE000FEF708FD80468946204B5B691846FEF7E5
:101AF00001FD82468B461D4B9B691846FEF7FAFC9A
:101B0000C7E90201194BDB691846FEF7F3FCC7E988
:101B10000001164B1B6A1846FEF7ECFC02460B460A
:101B2000CDE90A2397ED007B8DED087B97ED027BD5
:101B30008DED067BCDE904ABCDE90289CDE9004509
:101B40000B4A40210B480AF05FFE0A48FFF738FABB
:101B500003469BB21946074800F060FB022002F0E2
:101B6000D5F900BF1037BD46BDE8B08FD42C00209A
:101B7000C4FC0008A02D002080B483B000AF7860C2
:101B80003960FEE780B483B000AF78607B681A6884
:101B9000174B1B689A4224D1164B1B78002B10D090
:101BA000154B1A7C154B1A70134B5A7C144B1A7038
:101BB000114B9A7C134B1A700F4BDA7C124B1A7034
:101BC0000FE00D4B1A7C114B1A700B4B5A7C104BCB
:101BD0001A70094B9A7C0F4B1A70074BDA7C0E4B2C
:101BE0001A7000BF0C37BD465DF8047B704700BF1C
:101BF000002C0020D12C002038320020B92C0020ED
:101C0000FA2E00205C2D0020D22C0020D02C0020A9
:101C1000F82E0020B42E0020B82C002080B500AF94
:101C2000104B114A1A600F4B00225A600D4B7F2255
:101C30009A600C4BFF22DA600A4B00221A61094BB2
:101C400000225A61074B00229A61064807F0D2F839
:101C50000346002B03D04A210448FFF78DFF00BF45
:101C600080BD00BFFC2E002000280040E0FC0008E2
:101C700080B483B000AF78607B681B68054A9342EC
:101C800002D1054B01221A6000BF0C37BD465DF83A
:101C9000047B7047002800403C0E4742DFF834D0F8
:101CA000002103E00C4B5B58435004310B480C4BB4
:101CB00042189A42F6D30B4A02E0002342F8043B52
:101CC000094B9A42F9D300F0E5F80AF049FAFFF718
:101CD000D1FD7047000002202C0001080000002008
:101CE000D81C0020D81C002094380020FEE780B5C6
:101CF00000AF032002F040FD002200216FF00B0036
:101D000002F045FD002200216FF00A0002F03FFDC5
:101D1000002200216FF0090002F039FD00220021AD
:101D20006FF0040002F033FD002200216FF0030089
:101D300002F02DFD002200216FF0010002F027FDCE
:101D4000002200214FF0FF3002F021FD002200218F
:101D5000052002F01CFD052002F035FD00BF80BD0E
:101D600080B400AF00BFBD465DF8047B704780B40F
:101D700000AFFEE780B400AFFEE780B400AFFEE73F
:101D800080B400AFFEE780B400AF00BFBD465DF891
:101D9000047B704780B400AF00BFBD465DF8047B94
:101DA000704780B400AF00BFBD465DF8047B70474C
:101DB00080B500AF02F08AF802F04AFD00BF80BD96
:101DC00080B400AF00BFBD465DF8047B704780B5AE
:101DD00000AF012003F008FA00BF80BD80B500AF5E
:101DE000042003F001FA00BF80BD000080B500AF01
:101DF000024802F00BFE00BF80BD00BF542C002043
:101E000080B500AF024802F001FE00BF80BD00BFF8
:101E1000A02B002080B500AF024802F095F900BF6A
:101E200080BD00BF782B002080B500AFFFF746FED5
:101E3000024807F0EFF800BF80BD00BF582F002018
:101E400080B500AFFFF72EFE024807F0E3F800BFB1
:101E500080BD00BF1C2F002080B500AF024803F0FA
:101E600003FE00BF80BD00BF002C002080B500AF86
:101E7000024802F069F900BF80BD00BF502B00206E
:101E800080B500AF024805F029FB00BF80BD00BF50
:101E90007832002080B400AF164A164BD3F8883051
:101EA00043F47003C2F88830134A134B1B6843F0A5
:101EB00001031360104B00229A600F4A0E4B1B68FF
:101EC00023F0847323F4803313600B4B0B4A5A6066
:101ED000094A094B1B6823F480231360064B002238
:101EE000DA60044B4FF000629A6000BFBD465DF8B7
:101EF000047B704700ED00E0003802401030002401
:101F000080B586B000AF204B4FF080421A601E4B68
:101F10004AF210425A601C4B00229A601A4B4FF44E
:101F2000FA62DA60184B00221A61174807F047F886
:101F30000346002B03D049211448FFF71DFE4FF440
:101F40008053BB6007F1080319460F4807F06AF990
:101F50000346002B03D04F210C48FFF70DFE002352
:101F60003B6000237B603B461946074807F0BBFBFC
:101F70000346002B03D056210448FFF7FDFD00BFA8
:101F80001837BD4680BD00BF582F0020F0FC000868
:101F900080B586B000AF1F4B1F4A1A601D4B4AF236
:101FA00010425A601B4B00229A601A4B42F2107288
:101FB000DA60184B00221A61164807F000F8034651
:101FC000002B03D067211548FFF7D6FD4FF480534F
:101FD000BB6007F1080319460E4807F023F90346D2
:101FE000002B03D06D210D48FFF7C6FD00233B6099
:101FF00000237B603B461946064807F074FB034606
:10200000002B03D075210548FFF7B6FD00BF183738
:10201000BD4680BD1C2F002000040040F0FC0008DD
:1020200080B584B000AF78607B681B68B3F1804FE7
:1020300016D10023FB601A4A194B1B6C43F00103B5
:102040001364174B1B6C03F00103FB60FB68002259
:1020500003211C2002F09BFB1C2002F0B4FB1AE0C1
:102060007B681B680F4A934215D10023BB600C4A62
:102070000B4B1B6C43F002031364094B1B6C03F006
:102080000203BB60BB68002205211D2002F07FFB1C
:102090001D2002F098FB00BF1037BD4680BD00BF79
:1020A000003802400004004080B500AF002208491B
:1020B000084800F019FD0849064800F040FD0749AE
:1020C000044801F017FE034800F053FD00BF80BD37
:1020D000DC110020942F00201C120020CC110020C5
:1020E00080B500AF00220549054801F01AFE0549F8
:1020F000034801F030FE0023184680BDF83100206F
:10210000942F0020B831002080B400AF002318467F
:10211000BD465DF8047B704780B483B000AF0346D2
:102120003960FB711346BB80FB79232B4AD801A28F
:1021300052F823F0C5210008C5210008C521000878
:10214000C5210008C5210008C5210008C5210008D7
:10215000C5210008C5210008C5210008C5210008C7
:10216000C5210008C5210008C5210008C5210008B7
:10217000C5210008C5210008C5210008C5210008A7
:10218000C5210008C5210008C5210008C521000897
:10219000C5210008C5210008C5210008C521000887
:1021A000C5210008C5210008C5210008C521000877
:1021B000C5210008C5210008C5210008C521000867
:1021C000C521000800BF002318460C37BD465DF846
:1021D000047B704780B582B000AF786039604022E0
:1021E00000210C480AF0A4FA79680B4801F0B3FD0D
:1021F000094801F0EEFD402279680648FEF740FEEE
:102200000121044800F00AF8002318460837BD46AB
:1022100080BD00BF38320020942F002080B584B0EC
:1022200000AF78600B467B800023FB730D4BD3F827
:102230001832BB60BB68D3F81432002B01D00123E5
:102240000BE07B881A467968064801F06AFD05486C
:1022500001F095FD0346FB73FB7B18461037BD4626
:1022600080BD00BF942F002080B588B000AF78609B
:102270007B681B68B3F1A04F39D14FF40073FB604A
:1022800000233B6100237B6107F10C0319461A48C8
:1022900002F0F6FD4FF4C053FB6002233B610023C4
:1022A0007B610323BB610A23FB6107F10C03194621
:1022B000114802F0E5FD114A104B5B6B43F08003BF
:1022C00053630023BB600D4A0C4B5B6C43F48043AB
:1022D00053640A4B5B6C03F48043BB60BB68002211
:1022E0000121432002F053FA432002F06CFA00BFB0
:1022F0002037BD4680BD00BF0000024000380240CC
:1023000080B582B000AF78607B68D3F8EC237B683F
:1023100003F56F731946104600F074FC00BF0837D0
:10232000BD4680BD80B582B000AF78600B46FB70C3
:102330007B68D3F8EC03FA7879681346DB009B1AC4
:102340009B000B4403F501731A68FB78194600F0F3
:10235000A3FC00BF0837BD4680BD80B582B000AF8A
:1023600078600B46FB707B68D3F8EC03FA787968E9
:102370001346DB009B1A9B000B4444331A68FB781E
:10238000194600F0E4FC00BF0837BD4680BD80B5AB
:1023900082B000AF78607B68D3F8EC33184600F069
:1023A000CAFD00BF0837BD4680BD80B584B000AF10
:1023B00078600123FB737B68DB68002B02D0022B63
:1023C00003D005E00023FB7305E00123FB7302E06B
:1023D0000123FB7300BF7B68D3F8EC33FA7B114613
:1023E000184600F072FD7B68D3F8EC33184600F015
:1023F0003DFD00BF1037BD4680BD000080B582B0F6
:1024000000AF78607B68D3F8EC33184600F06DFDC0
:102410007B681B6803F560631A467B681B6803F5DD
:1024200060631B6843F0010313607B681B6A002B29
:1024300005D0054A044B1B6943F00603136100BF36
:102440000837BD4680BD00BF00ED00E080B582B01A
:1024500000AF78607B68D3F8EC33184600F05AFD83
:1024600000BF0837BD4680BD80B582B000AF786040
:102470000B46FB707B68D3F8EC33FA7811461846AC
:1024800000F080FD00BF0837BD4680BD80B582B03A
:1024900000AF78600B46FB707B68D3F8EC33FA78BA
:1024A0001146184600F061FD00BF0837BD4680BDEB
:1024B00080B582B000AF78607B68D3F8EC33184603
:1024C00000F06DFD00BF0837BD4680BD80B582B00D
:1024D00000AF78607B68D3F8EC33184600F06AFDF3
:1024E00000BF0837BD4680BD80B582B000AF7860C0
:1024F0007B681B78002B42D1234A7B68C2F8EC33FF
:102500007B68214AC3F820221F4B4FF0A0421A607B
:102510001D4B04225A601C4B0222DA601A4B002227
:102520001A61194B00225A61174B02229A61164B0D
:102530000022DA61144B00221A62134B00225A6205
:10254000114B0122DA62104B00221A630E4804F08C
:102550009CFE0346002B04D04FF4A7710B48FFF7F5
:102560000BFB8021084805F035FF4022002106487A
:1025700005F0E5FE80220121034805F0E0FE00237E
:1025800018460837BD4680BD7832002000FD00089F
:1025900080B584B000AF78600023BB730023FB7369
:1025A0007B68D3F82032184604F076FF0346BB73ED
:1025B000BB7B032B16D801A252F823F0CD250008CF
:1025C000D3250008D9250008DF2500080023FB7368
:1025D0000BE00223FB7308E00123FB7305E00223F9
:1025E000FB7302E00223FB7300BFFB7B184610372E
:1025F000BD4680BD80B584B000AF78600846114606
:102600001A460346FB700B46BB7013463B80002303
:10261000BB730023FB737B68D3F82002BB783A8836
:10262000F97805F006FC0346BB73BB7B032B17D878
:1026300001A252F823F000BF492600084F260008E7
:10264000552600085B2600080023FB730BE00223DD
:10265000FB7308E00123FB7305E00223FB7302E038
:102660000223FB7300BFFB7B18461037BD4680BDBD
:1026700080B584B000AF78600B46FB700023BB735D
:102680000023FB737B68D3F82032FA781146184692
:1026900005F037FC0346BB73BB7B032B16D801A2A6
:1026A00052F823F0B5260008BB260008C126000812
:1026B000C72600080023FB730BE00223FB7308E02E
:1026C0000123FB7305E00223FB7302E00223FB738B
:1026D00000BFFB7B18461037BD4680BD80B584B077
:1026E00000AF78600B46FB700023BB730023FB73C5
:1026F0007B68D3F82032FA781146184605F0F7FCCB
:102700000346BB73BB7B032B16D801A252F823F000
:1027100021270008272700082D2700083327000855
:102720000023FB730BE00223FB7308E00123FB7320
:1027300005E00223FB7302E00223FB7300BFFB7B77
:1027400018461037BD4680BD80B584B000AF7860B4
:102750000B46FB700023BB730023FB737B68D3F82D
:102760002032FA781146184605F01CFD0346BB736B
:10277000BB7B032B16D801A252F823F08D2700084B
:1027800093270008992700089F2700080023FB7360
:102790000BE00223FB7308E00123FB7305E0022337
:1027A000FB7302E00223FB7300BFFB7B184610376C
:1027B000BD4680BD80B485B000AF78600B46FB702D
:1027C0007B68D3F82032FB6097F90330002B0BDADB
:1027D000FB7803F07F02F9681346DB009B1A9B002D
:1027E0000B443A331B780BE0FB7803F07F02F96867
:1027F0001346DB009B1A9B000B4403F5FD731B780B
:1028000018461437BD465DF8047B704780B584B028
:1028100000AF78600B46FB700023BB730023FB7393
:102820007B68D3F82032FA781146184605F0E0FAB2
:102830000346BB73BB7B032B16D801A252F823F0CF
:1028400051280008572800085D2800086328000860
:102850000023FB730BE00223FB7308E00123FB73EF
:1028600005E00223FB7302E00223FB7300BFFB7B46
:1028700018461037BD4680BD80B586B000AFF86001
:102880007A601A460B46FB7213463B810023BB75E8
:102890000023FB75FB68D3F820023B89F97A7A683C
:1028A00005F0DCFB0346BB75BB7D032B16D801A2EC
:1028B00052F823F0C5280008CB280008D1280008CA
:1028C000D72800080023FB750BE00223FB7508E006
:1028D0000123FB7505E00223FB7502E00223FB7573
:1028E00000BFFB7D18461837BD4680BD80B586B059
:1028F00000AFF8607A601A460B46FB7213463B81C4
:102900000023BB750023FB75FB68D3F820023B89CD
:10291000F97A7A6805F03FFB0346BB75BB7D032B54
:1029200016D801A252F823F0392900083F290008DF
:10293000452900084B2900080023FB750BE0022302
:10294000FB7508E00123FB7505E00223FB7502E03F
:102950000223FB7500BFFB7D18461837BD4680BDBE
:1029600080B582B000AF78600B46FB707B68D3F80F
:102970002032FA781146184605F057FB03461846F0
:102980000837BD4680BD000080B483B000AF034669
:102990003960FB713B6812221A80034B18460C37D2
:1029A000BD465DF8047B7047F811002080B483B009
:1029B00000AF03463960FB713B6804221A80034B69
:1029C00018460C37BD465DF8047B70470C1200209A
:1029D00080B582B000AF03463960FB71FB79002BF4
:1029E00005D13A680749084800F0FFFE04E03A685C
:1029F0000449054800F0F9FE024B18460837BD4669
:102A000080BD00BF6836002014FD000880B582B08C
:102A100000AF03463960FB713A680449044800F08E
:102A2000E4FE024B18460837BD4680BD68360020DC
:102A30002CFD000880B582B000AF03463960FB7101
:102A4000FB79002B05D13A680749084800F0CDFE14
:102A500004E03A680449054800F0C7FE024B1846F6
:102A60000837BD4680BD00BF6836002040FD000825
:102A700080B582B000AF03463960FB71FB79002B53
:102A800005D13A680749084800F0AFFE04E03A680B
:102A90000449054800F0A9FE024B18460837BD4618
:102AA00080BD00BF6836002050FD000880B582B0B0
:102AB00000AF03463960FB71FB79002B05D13A6802
:102AC0000749084800F091FE04E03A6804490548C7
:102AD00000F08BFE024B18460837BD4680BD00BF94
:102AE000683600205CFD000880B584B000AFF86057
:102AF000B9601346FB71FB68002B01D102231AE079
:102B0000FB68D3F81432002B03D0FB680022C3F813
:102B10001422BB68002B03D0FB68BA68C3F81022EC
:102B2000FB68012283F8FC21FB68FA791A70F868C7
:102B3000FFF7DAFC002318461037BD4680BD80B48D
:102B400085B000AF786039600023FB733B68002BD1
:102B500006D07B683A68C3F814220023FB7301E0B7
:102B60000223FB73FB7B18461437BD465DF8047BDC
:102B7000704780B582B000AF78607868FFF708FDD5
:102B8000002318460837BD4680BD80B483B000AF2F
:102B90007860002318460C37BD465DF8047B70470B
:102BA00080B584B000AF78600B46FB700223FB73E6
:102BB0007B68D3F81432002B0CD07B68D3F8143226
:102BC0001B68FA781146786898470346002B01D1B4
:102BD0000023FB73FB7B18461037BD4680BD80B5D4
:102BE00082B000AF78600B46FB707B68D3F814327C
:102BF0005B68FA78114678689847002318460837CA
:102C0000BD4680BD80B582B000AF786039607B681A
:102C100003F502733968184600F099FD7B680122BC
:102C2000C3F8F4217B68B3F80E321A467B68C3F808
:102C3000F8217B6893F8083203F01F03012B0BD0B7
:102C4000022B11D0002B17D17B6803F502731946B4
:102C5000786800F0C7F91AE07B6803F5027319463B
:102C6000786800F00FFA12E07B6803F502731946EA
:102C7000786800F03AFA0AE07B6893F8083223F0AB
:102C80007F03DBB219467868FFF728FD00BF0023F9
:102C900018460837BD4680BD80B586B000AFF860E5
:102CA0000B467A60FB72FB7A002B38D1FB6803F588
:102CB00082737B61FB68D3F8F431032B42D17B69CB
:102CC0009A687B69DB689A4214D97B699A687B6948
:102CD000DB68D21A7B699A607B69DA687B699B68DA
:102CE000934228BF13469BB21A467968F86800F0F1
:102CF00023FE27E0FB68D3F814321B69002B0AD0AF
:102D0000FB6893F8FC31032B05D1FB68D3F8143230
:102D10001B69F8689847F86800F020FE12E0FB682D
:102D2000D3F814329B69002B0CD0FB6893F8FC316C
:102D3000032B07D1FB68D3F814329B69FA7A11464A
:102D4000F8689847002318461837BD4680BD80B5FF
:102D500086B000AFF8600B467A60FB72FB7A002BFE
:102D60006CD1FB6814337B61FB68D3F8F431022B20
:102D700057D17B699A687B69DB689A4215D97B6970
:102D80009A687B69DB68D21A7B699A607B699B6869
:102D90009BB21A467968F86800F09EFD0023002275
:102DA0000021F868FFF7A2FD3BE07B695B687A6968
:102DB000D268B3FBF2F102FB01F29B1A002B1CD18B
:102DC0007B695A687B69DB689A4216D37B695A68CB
:102DD000FB68D3F8F8319A420FD200220021F8683C
:102DE00000F07AFDFB680022C3F8F82100230022DE
:102DF0000021F868FFF77AFD13E0FB68D3F814327E
:102E0000DB68002B0AD0FB6893F8FC31032B05D15B
:102E1000FB68D3F81432DB68F8689847F86800F06C
:102E2000B0FDFB6893F80032012B1AD1F868FFF768
:102E3000ACFEFB68002283F8002212E0FB68D3F8A6
:102E400014325B69002B0CD0FB6893F8FC31032B28
:102E500007D1FB68D3F814325B69FA7A1146F86837
:102E60009847002318461837BD4680BD80B582B00C
:102E700000AF78604023002200217868FFF7BAFB9A
:102E80007B684022C3F8102140230022802178680B
:102E9000FFF7B0FB7B6840221A627B68012283F84F
:102EA000FC217B68D3F81832002B09D07B68D3F85B
:102EB00014325B687A685268D2B2114678689847D3
:102EC000002318460837BD4680BD80B483B000AFEC
:102ED00078600B46FB707B68FA781A7400231846FA
:102EE0000C37BD465DF8047B704780B483B000AFFB
:102EF00078607B6893F8FC217B6883F8FD217B6810
:102F0000042283F8FC21002318460C37BD465DF8E7
:102F1000047B704780B483B000AF78607B6893F81F
:102F2000FD217B6883F8FC21002318460C37BD4641
:102F30005DF8047B704780B582B000AF78607B6835
:102F400093F8FC31032B0BD17B68D3F81432DB6987
:102F5000002B05D07B68D3F81432DB69786898477A
:102F6000002318460837BD4680BD80B483B000AF4B
:102F700078600B46FB70002318460C37BD465DF8A1
:102F8000047B704780B483B000AF78600B46FB7061
:102F9000002318460C37BD465DF8047B704780B4AB
:102FA00083B000AF7860002318460C37BD465DF84B
:102FB000047B704780B582B000AF78607B680122E7
:102FC00083F8FC217B68D3F814325B687A68526816
:102FD000D2B2114678689847002318460837BD4694
:102FE00080BD000080B584B000AF786039600023F8
:102FF000FB733B685B78092B39D801A252F823F0A8
:1030000051300008653000086F3000085B30000860
:103010006F30000833300008293000086F30000896
:10302000473000083D3000083968786800F036F90C
:1030300022E03968786800F025FA1DE03968786880
:1030400000F05EFA18E03968786800F0E1FA13E001
:103050003968786800F00EFB0EE03968786800F097
:1030600033FB09E03968786800F049FB04E039680F
:10307000786800F0A9FB00BFFB7B18461037BD46FF
:1030800080BD00BF80B584B000AF78603960002398
:10309000FB737B6893F8FC31032B1BD13B689B8847
:1030A000DBB2012B11D87B68D3F814329B683968E6
:1030B000786898473B68DB88002B10D1FB7B002B9E
:1030C0000DD1786800F04AFC09E03968786800F0B2
:1030D0007BFB04E03968786800F076FB00E000BF15
:1030E000002318461037BD4680BD80B584B000AFC0
:1030F000786039600023FB733B689B88BB733B6837
:103100001B7803F06003202B08D17B68D3F81432BE
:103110009B683968786898470023BAE03B685B7819
:10312000012B39D0032B02D0002B6BD0B0E07B6891
:1031300093F8FC31022B02D0032B0CD025E0BB7B93
:10314000002B27D0BB7B802B24D0BB7B1946786813
:10315000FFF7C4FA1EE03B685B88002B0AD1BB7BFB
:10316000002B07D0BB7B802B04D0BB7B1946786833
:10317000FFF7B4FA7B68D3F814329B683968786833
:103180009847786800F0EAFB05E03968786800F055
:103190001BFB00E000BF7BE07B6893F8FC31022B57
:1031A00002D0032B0CD024E0BB7B002B26D0BB7BB2
:1031B000802B23D0BB7B19467868FFF78FFA1DE080
:1031C0003B685B88002B1BD1BB7B03F07F03002B8C
:1031D0000BD0BB7B19467868FFF7B6FA7B68D3F84B
:1031E00014329B68396878689847786800F0B6FBB5
:1031F00006E03968786800F0E7FA02E000BF47E0CF
:1032000000BF45E07B6893F8FC31022B02D0032B12
:103210000BD036E0BB7B03F07F03002B36D0BB7BAB
:1032200019467868FFF75AFA30E097F90E30002B0C
:1032300008DABB7B03F07F0301331B017A68134478
:10324000043307E0BB7B03F07F0310331B017A6874
:1032500013440433BB60BB7B19467868FFF7AAFAB6
:103260000346002B03D0BB6801221A6002E0BB6852
:1032700000221A60BB6802221946786800F010FB31
:1032800005E03968786800F09FFA00E000BF00BFF1
:10329000FB7B18461037BD4680BD000080B584B06A
:1032A00000AF786039603B685B881B0A9BB2013BCA
:1032B000062B00F2C98001A252F823F0D93200088F
:1032C000F13200083133000849340008493400085D
:1032D000F53300081B3400087B68D3F810321B68F4
:1032E0007A68127C07F10A0110469847F860B0E04E
:1032F0007B681B7C002B0DD17B68D3F814329B6A52
:1033000007F10A0210469847F860FB680133022271
:103310001A709EE07B68D3F81432DB6A07F10A0268
:1033200010469847F860FB68013302221A7090E05B
:103330003B685B88DBB2052B56D801A252F823F01C
:10334000593300087133000889330008A13300089D
:10335000B9330008D13300087B68D3F810325B68BA
:103360007A68127C07F10A0110469847F86040E03D
:103370007B68D3F810329B687A68127C07F10A01E7
:1033800010469847F86034E07B68D3F81032DB6869
:103390007A68127C07F10A0110469847F86028E025
:1033A0007B68D3F810321B697A68127C07F10A0136
:1033B00010469847F8601CE07B68D3F810325B69D0
:1033C0007A68127C07F10A0110469847F86010E00D
:1033D0007B68D3F810329B697A68127C07F10A0186
:1033E00010469847F86004E03968786800F0ECF916
:1033F00044E02EE07B681B7C002B09D17B68D3F86E
:1034000014325B6B07F10A0210469847F86020E01F
:103410003968786800F0D8F930E07B681B7C002BB5
:103420000DD17B68D3F814321B6B07F10A021046EA
:103430009847F860FB68013307221A7009E0396881
:10344000786800F0C1F919E03968786800F0BCF9D3
:1034500014E07B89002B11D03B68DB88002B0DD05A
:103460003B68DA887B89934228BF13469BB27B81F5
:103470007B891A46F968786800F012FA1037BD4661
:1034800080BD00BF80B584B000AF786039603B6814
:103490009B88002B2CD13B68DB88002B28D13B6814
:1034A0005B88DBB203F07F03FB737B6893F8FC312E
:1034B000032B04D13968786800F086F91CE07B683A
:1034C000FA7B83F8FE21FB7B19467868FFF79EF9AB
:1034D000786800F043FAFB7B002B04D07B68022263
:1034E00083F8FC2108E07B68012283F8FC2103E0DB
:1034F0003968786800F068F900BF1037BD4680BDB4
:1035000080B582B000AF786039603B685B88DAB222
:103510003E4B1A703D4B1B78012B04D939687868F3
:1035200000F052F96FE07B6893F8FC31022B02D077
:10353000032B23D062E0354B1B78002B1AD0334B82
:103540001B781A467B685A607B68032283F8FC214B
:103550002E4B1B7819467868FFF722FB0346022B97
:1035600004D13968786800F02FF94CE0786800F0F1
:10357000F5F948E0786800F0F1F944E0234B1B7856
:10358000002B12D17B68022283F8FC211F4B1B7891
:103590001A467B685A601D4B1B7819467868FFF7FE
:1035A0001EFB786800F0DAF92DE0184B1B781A46FC
:1035B0007B685B689A421DD07B685B68DBB219460A
:1035C0007868FFF70CFB114B1B781A467B685A6032
:1035D0000E4B1B7819467868FFF7E2FA0346022B78
:1035E00004D13968786800F0EFF80CE0786800F0F2
:1035F000B5F908E0786800F0B1F904E03968786856
:1036000000F0E2F800BF0837BD4680BDD82A002090
:1036100080B582B000AF786039603B68DB88012BF1
:1036200004D03968786800F0CFF81FE07B6893F821
:10363000FC31022B02D0032B0BD012E07B6800225E
:103640009A607B68083301221946786800F028F9EF
:103650000CE07B68043301221946786800F020F9F9
:1036600004E03968786800F0AFF800BF00BF0837A1
:10367000BD4680BD80B582B000AF786039607B68A0
:1036800093F8FC31023B012B15D87B680122DA60EC
:103690007B68D3F80432002B05D07B68DB6843F0ED
:1036A00002027B68DA607B680C3302221946786874
:1036B00000F0F6F804E03968786800F085F800BF9B
:1036C00000BF0837BD4680BD80B582B000AF7860CE
:1036D00039603B685B88012B0DD17B680122C3F800
:1036E00004227B68D3F814329B683968786898475D
:1036F000786800F033F900BF0837BD4680BD80B55B
:1037000082B000AF786039607B6893F8FC31023B8F
:10371000012B12D83B685B88012B13D17B680022F8
:10372000C3F804227B68D3F814329B683968786840
:103730009847786800F012F904E03968786800F07A
:1037400043F800E000BF00BF0837BD4680BD80B42D
:1037500083B000AF786039603B681A787B681A7074
:103760003B685A787B685A703B6802331B789AB280
:103770003B6803331B789BB21B029BB213449AB283
:103780007B685A803B6804331B789AB23B680533E8
:103790001B789BB21B029BB213449AB27B689A803F
:1037A0003B6806331B789AB23B6807331B789BB2A1
:1037B0001B029BB213449AB27B68DA8000BF0C37BD
:1037C000BD465DF8047B704780B582B000AF78607D
:1037D000396080217868FEF781FF00217868FEF764
:1037E0007DFF00BF0837BD4680BD80B586B000AF05
:1037F000F860B9607A600023FB75FB68002B33D05A
:10380000F86800F035F8034601339BB25B009AB2CA
:103810007B681A80FB7D5A1CFA751A46BB681344F4
:103820007A681288D2B21A70FB7D5A1CFA751A4651
:10383000BB68134403221A7012E0FB7D5A1CFA7510
:103840001A46BB681A44FB68591CF9601B78137050
:10385000FB7D5A1CFA751A46BB68134400221A7085
:10386000FB681B78002BE8D100BF1837BD4680BD30
:1038700080B485B000AF78600023FB7305E0FB7B6C
:103880000133FB737B6801337B607B681B78002B03
:10389000F5D1FB7B18461437BD465DF8047B7047B5
:1038A00080B584B000AFF860B9601346FB80FB6858
:1038B0000222C3F8F421FA88FB689A61FA88FB684F
:1038C000DA61FB88BA680021F868FEF7D5FF0023AB
:1038D00018461037BD4680BD80B584B000AFF86093
:1038E000B9601346FB80FB88BA680021F868FEF7D0
:1038F000C3FF002318461037BD4680BD80B584B095
:1039000000AFF860B9601346FB80FB680322C3F880
:10391000F421FA88FB68C3F80821FA88FB68C3F829
:103920000C21FB88BA680021F868FEF7DFFF00234E
:1039300018461037BD4680BD80B584B000AFF86032
:10394000B9601346FB80FB88BA680021F868FEF76F
:10395000CDFF002318461037BD4680BD80B582B02C
:1039600000AF78607B680422C3F8F42100230022B2
:1039700000217868FEF780FF002318460837BD460F
:1039800080BD80B582B000AF78607B680522C3F847
:10399000F4210023002200217868FEF7A7FF00230E
:1039A00018460837BD4680BD80B584B000AF78604A
:1039B0000B46FB700023FB737B681B7C002B0ED136
:1039C0004FF40073022281217868FEF713FE4FF452
:1039D0000073022201217868FEF70CFE0BE0402301
:1039E000022281217868FEF705FE40230222012190
:1039F0007868FEF7FFFD0823032282217868FEF72E
:103A0000F9FD4FF4077008F0D3FB03461A467B68B4
:103A1000C3F818227B68D3F81832002B02D1012397
:103A2000FB7326E07B68D3F81832BB607B68D3F861
:103A30001C321B689847BB680022C3F81422BB687D
:103A40000022C3F818227B681B7C002B09D1BB68BD
:103A5000D3F804224FF4007301217868FEF746FF83
:103A600007E0BB68D3F80422402301217868FEF701
:103A70003DFFFB7B18461037BD4680BD80B584B046
:103A800000AF78600B46FB700023FB7381217868E0
:103A9000FEF7EEFD01217868FEF7EAFD82217868E5
:103AA000FEF7E6FD7B68D3F81832002B0ED07B685A
:103AB000D3F81C325B6898477B68D3F818321846F5
:103AC00008F07EFB7B680022C3F81822FB7B1846B7
:103AD0001037BD4680BD000080B584B000AF78606F
:103AE00039607B68D3F81832FB603B681B7803F0C1
:103AF0006003002B3AD0202B00D043E03B68DB88EA
:103B0000002B29D03B681B785BB2002B11DA7B6855
:103B1000D3F81C329B683A685078F9683A68D288C2
:103B20009847F9683B68DB881A467868FFF7B8FE63
:103B300029E03B685A78FB6883F800223B68DB8801
:103B4000DAB2FB6883F80122F9683B68DB881A4621
:103B50007868FFF7D3FE16E07B68D3F81C329B68C9
:103B60003A6850780022396898470CE03B685B78E7
:103B70000A2B01D00B2B05E0012205497868FFF7DD
:103B80008FFE00BF00BF002318461037BD4680BD22
:103B9000D92A002080B485B000AF78600B46FB7056
:103BA0007B68D3F81832FB607B68D3F81832002B9F
:103BB00005D0FB680022C3F81422002300E0022392
:103BC00018461437BD465DF8047B704780B584B055
:103BD00000AF78600B46FB707B68D3F81832FB604F
:103BE000FB7819467868FEF7BBFE0246FB68C3F80F
:103BF0000C227B68D3F81832002B0DD07B68D3F8E9
:103C00001C32DB68FA68D2F80402FA6802F5037223
:103C100011469847002300E0022318461037BD469E
:103C200080BD80B584B000AF78607B68D3F818326F
:103C3000FB607B68D3F81C32002B15D0FB6893F82F
:103C40000032FF2B10D07B68D3F81C329B68FA68D7
:103C500092F80002F968FA6892F8012292B2984745
:103C6000FB68FF2283F80022002318461037BD4668
:103C700080BD000080B483B000AF78607B684322D1
:103C80001A80034B18460C37BD465DF8047B70471D
:103C90009812002080B483B000AF78607B68432224
:103CA0001A80034B18460C37BD465DF8047B7047FD
:103CB0005412002080B483B000AF78607B68432248
:103CC0001A80034B18460C37BD465DF8047B7047DD
:103CD000DC12002080B483B000AF78607B680A22D9
:103CE0001A80034B18460C37BD465DF8047B7047BD
:103CF0001012002080B485B000AF786039600223D4
:103D0000FB733B68002B05D07B683A68C3F81C2224
:103D10000023FB73FB7B18461437BD465DF8047B1C
:103D2000704780B487B000AFF860B9601346FB807D
:103D3000FB68D3F818327B617B69BA68C3F8082244
:103D4000FA887B69C3F81022002318461C37BD4649
:103D50005DF8047B704780B485B000AF786039604F
:103D60007B68D3F81832FB60FB683A68C3F804221A
:103D7000002318461437BD465DF8047B704780B5B4
:103D800084B000AF78607B68D3F81832FB607B6842
:103D9000D3F81832002B17D0FB68D3F81432002B5D
:103DA00010D1FB680122C3F81422FB68D3F8082263
:103DB000FB68D3F810329BB281217868FEF75CFD76
:103DC000002302E0012300E0022318461037BD461D
:103DD00080BD80B584B000AF78607B68D3F81832BE
:103DE000FB607B68D3F81832002B17D07B681B7CF4
:103DF000002B09D1FB68D3F804224FF40073012192
:103E00007868FEF773FD07E0FB68D3F804224023CF
:103E100001217868FEF76AFD002300E002231846BE
:103E20001037BD4680BD000080B500AF0E4A0E4B76
:103E30001B6843F4007313600B4A0B4B1B6843F47D
:103E400080631360084A084B1B6843F48073136057
:103E5000032000F091FC002000F008F8FDF747FF78
:103E60000023184680BD00BF003C024080B582B0F0
:103E700000AF7860124B1A68124B1B7819464FF44A
:103E80007A73B3FBF1F3B2FBF3F3184600F0A9FC2D
:103E90000346002B01D001230EE07B680F2B0AD8CC
:103EA000002279684FF0FF3000F071FC064A7B6811
:103EB0001360002300E0012318460837BD4680BD8B
:103EC000C8110020241300202013002080B400AF6C
:103ED000064B1B781A46064B1B681344044A1360B2
:103EE00000BFBD465DF8047B704700BF241300206F
:103EF0006838002080B400AF034B1B681846BD46ED
:103F00005DF8047B704700BF6838002080B584B03E
:103F100000AF7860FFF7EEFFB8607B68FB60FB687E
:103F2000B3F1FF3F05D0094B1B781A46FB681344D9
:103F3000FB6000BFFFF7DEFF0246BB68D21AFB68DA
:103F40009A42F7D300BF1037BD4680BD241300202E
:103F500080B584B000AF78600023FB607B68002BE5
:103F600001D10123ECE07B6893F82030DBB2002B19
:103F700002D17868FDF704FA7B681B687A681268DA
:103F8000126822F002021A60FFF7B4FFF86012E034
:103F9000FFF7B0FF0246FB68D31A0A2B0BD97B68E8
:103FA0005B6A43F400327B685A627B68052283F8BF
:103FB00020200123C4E07B681B685B6803F00203D8
:103FC000002BE5D17B681B687A681268126842F0A2
:103FD00001021A60FFF78EFFF86012E0FFF78AFF18
:103FE0000246FB68D31A0A2B0BD97B685B6A43F441
:103FF00000327B685A627B68052283F82020012307
:104000009EE07B681B685B6803F00103002BE5D032
:104010007B681B7E012B08D17B681B687A6812685D
:10402000126842F080021A6007E07B681B687A68B9
:104030001268126822F080021A607B685B7E012B96
:1040400008D17B681B687A681268126842F04002E7
:104050001A6007E07B681B687A681268126822F0B1
:1040600040021A607B689B7E012B08D17B681B682D
:104070007A681268126842F020021A6007E07B68D2
:104080001B687A681268126822F020021A607B6846
:10409000DB7E012B08D17B681B687A681268126886
:1040A00022F010021A6007E07B681B687A681268C9
:1040B000126842F010021A607B681B7F012B08D146
:1040C0007B681B687A681268126842F008021A60FE
:1040D00007E07B681B687A681268126822F00802A1
:1040E0001A607B685B7F012B08D17B681B687A684C
:1040F0001268126842F004021A6007E07B681B68CD
:104100007A681268126822F004021A607B681B68E1
:104110007A6891687A68D26811437A6812691143A3
:104120007A68526911437A685268013A0A43DA613F
:104130007B6800225A627B68012283F820200023DA
:1041400018461037BD4680BD80B58AB000AF786094
:1041500000237B627B681B685B693B627B681B6832
:104160005B68FB617B681B689B68BB617B681B6845
:10417000DB687B617B681B681B693B617B681B6834
:104180009B69FB603B6A03F00103002B7CD0BB6999
:1041900003F00103002B23D07B681B6801229A6087
:1041A000BB6903F00203002B03D0786800F07DF9AF
:1041B00016E0BB6903F00403002B04D07B6A43F4D0
:1041C00000637B620CE0BB6903F00803002B04D0A2
:1041D0007B6A43F480537B6202E0786800F083F9E5
:1041E000BB6903F48073002B24D07B681B684FF4F9
:1041F00080729A60BB6903F40073002B03D0786867
:1042000000F05DF916E0BB6903F48063002B04D075
:104210007B6A43F400537B620CE0BB6903F40063E8
:10422000002B04D07B6A43F480437B6202E0786811
:1042300000F063F9BB6903F48033002B24D07B6862
:104240001B684FF480329A60BB6903F40033002B83
:1042500003D0786800F03DF916E0BB6903F48023D1
:10426000002B04D07B6A43F400437B620CE0BB6903
:1042700003F40023002B04D07B6A43F480337B6279
:1042800002E0786800F043F93B6A03F00803002B72
:104290000CD07B6903F01003002B07D07B6A43F43A
:1042A00000737B627B681B681022DA603B6A03F054
:1042B0000403002B0BD07B6903F00803002B06D00E
:1042C0007B681B680822DA60786800F034F93B6A82
:1042D00003F00203002B09D07B681B68DB6803F046
:1042E0000303002B02D0786800F01BF93B6A03F04F
:1042F0004003002B0CD03B6903F01003002B07D0C8
:104300007B6A43F480637B627B681B6810221A61BE
:104310003B6A03F02003002B0BD03B6903F008033A
:10432000002B06D07B681B6808221A61786800F0B1
:1043300016F93B6A03F01003002B09D07B681B6859
:104340001B6903F00303002B02D0786800F0FDF82E
:104350003B6A03F40033002B0BD0FB6903F010031E
:10436000002B06D07B681B6810225A60786800F02A
:1043700000F93B6A03F48033002B0BD0FB6903F098
:104380000803002B06D07B681B6808225A607868F7
:1043900000F0F9F83B6A03F40043002B75D0FB6989
:1043A00003F00403002B6CD03B6A03F48073002BF2
:1043B00008D0FB6803F00103002B03D07B6A43F0B5
:1043C00001037B623B6A03F40073002B08D0FB6897
:1043D00003F00203002B03D07B6A43F002037B62ED
:1043E0003B6A03F48063002B08D0FB6803F00403EE
:1043F000002B03D07B6A43F004037B623B6A03F427
:104400000063002B3DD0FB6803F07003002B38D015
:10441000FB6803F07003302B17D0302B04D8102B1F
:1044200009D0202B0CD024E0502B18D0602B1BD0AF
:10443000402B0FD01DE07B6A43F008037B6218E03D
:104440007B6A43F010037B6213E07B6A43F0200336
:104450007B620EE07B6A43F040037B6209E07B6A8B
:1044600043F080037B6204E07B6A43F480737B62E9
:1044700000BF7B681B687A681268926922F070023C
:104480009A617B681B6804225A607B6A002B08D003
:104490007B685A6A7B6A1A437B685A62786800F0C4
:1044A0007CF800BF2837BD4680BD80B483B000AF24
:1044B000786000BF0C37BD465DF8047B704780B460
:1044C00083B000AF786000BF0C37BD465DF8047B59
:1044D000704780B483B000AF786000BF0C37BD4632
:1044E0005DF8047B704780B483B000AF786000BF94
:1044F0000C37BD465DF8047B704780B483B000AFD5
:10450000786000BF0C37BD465DF8047B704780B40F
:1045100083B000AF786000BF0C37BD465DF8047B08
:10452000704780B483B000AF786000BF0C37BD46E1
:104530005DF8047B704780B483B000AF786000BF43
:104540000C37BD465DF8047B704780B483B000AF84
:10455000786000BF0C37BD465DF8047B704780B4BF
:1045600083B000AF786000BF0C37BD465DF8047BB8
:10457000704780B483B000AF786000BF0C37BD4691
:104580005DF8047B704780B483B000AF786000BFF3
:104590000C37BD465DF8047B704780B483B000AF34
:1045A000786000BF0C37BD465DF8047B70470000A3
:1045B00080B485B000AF78607B6803F00703FB60D0
:1045C0000C4BDB68BB60BA684FF6FF031340BB605F
:1045D000FB681A02BB68134343F0BF6343F4003324
:1045E000BB60044ABB68D36000BF1437BD465DF8AA
:1045F000047B704700ED00E080B400AF044BDB6843
:104600001B0A03F007031846BD465DF8047B70479C
:1046100000ED00E080B483B000AF0346FB710949B0
:1046200097F907305B09FA7902F01F02012000FABE
:1046300002F241F8232000BF0C37BD465DF8047B31
:10464000704700BF00E100E080B483B000AF0346D4
:10465000FB71094997F907305B09FA7902F01F02EB
:10466000012000FA02F2603341F8232000BF0C372A
:10467000BD465DF8047B704700E100E080B483B084
:1046800000AF03463960FB7197F90730002B0BDA56
:104690000D49FB7903F00F03043B3A68D2B21201D3
:1046A000D2B20B441A7609E0084997F907303A6804
:1046B000D2B21201D2B20B4483F8002300BF0C37F0
:1046C000BD465DF8047B704700ED00E000E100E0CE
:1046D00080B489B000AFF860B9607A60FB6803F01D
:1046E0000703FB61FB69C3F10703042B28BF042305
:1046F000BB61FB690433062B02D9FB69033B00E075
:1047000000237B610122BB6902FA03F35A1EBB68D6
:104710001A407B699A4001217B6901FA03F3591E13
:104720007B680B40134318462437BD465DF8047B75
:104730007047000080B582B000AF78607B68013BB5
:10474000B3F1807F01D301230FE00A4A7B68013B6C
:1047500053600F214FF0FF30FFF790FF054B002211
:104760009A60044B07221A60002318460837BD469A
:1047700080BD00BF10E000E080B582B000AF78607F
:104780007868FFF715FF00BF0837BD4680BD80B5CC
:1047900086B000AF0346B9607A60FB7300237B618B
:1047A000FFF72AFF78617A68B9687869FFF790FFA8
:1047B000024697F90F3011461846FFF75FFF00BF1A
:1047C0001837BD4680BD80B582B000AF0346FB718F
:1047D00097F907301846FFF71DFF00BF0837BD46A1
:1047E00080BD80B582B000AF78607868FFF7A2FF27
:1047F000034618460837BD4680BD80B582B000AF7D
:104800000346FB7197F907301846FFF71DFF00BFFD
:104810000837BD4680BD000080B483B000AF78602B
:104820007B68042B06D1094A084B1B6843F004033C
:10483000136005E0054A054B1B6823F00403136071
:1048400000BF0C37BD465DF8047B704710E000E008
:1048500080B500AF00F002F800BF80BD80B400AFAB
:1048600000BFBD465DF8047B7047000080B586B090
:1048700000AF786000237B61FFF73CFB38617B6809
:10488000002B01D1012399E07B68002283F83420BA
:104890007B68022283F835207B681B687A6812687F
:1048A000126822F001021A600FE0FFF723FB0246B4
:1048B0003B69D31A052B08D97B6820225A657B688F
:1048C000032283F83520032378E07B681B681B688C
:1048D00003F00103002BE8D17B681B681B687B6138
:1048E0007A69384B13407B617B685A687B689B68A8
:1048F0001A437B68DB681A437B681B691A437B6831
:104900005B691A437B689B691A437B68DB691A43BE
:104910007B681B6A13437A6913437B617B685B6A1C
:10492000042B07D17B68DA6A7B681B6B13437A69B7
:1049300013437B617B681B687A691A607B681B681C
:104940005B697B617B6923F007037B617B685B6A42
:104950007A6913437B617B685B6A042B17D17B68A0
:104960009B6A7A6913437B617B68DB6A002B0ED0FC
:10497000786800F00BFA0346002B08D07B684022D1
:104980005A657B68012283F83520012316E07B6895
:104990001B687A695A61786800F0C2F90346FB60C7
:1049A0007B68DB6D3F229A40FB689A607B6800223F
:1049B0005A657B68012283F8352000231846183792
:1049C000BD4680BD3F8010F080B483B000AF7860FA
:1049D0007B6893F83530DBB2022B04D07B688022F1
:1049E0005A6501230CE07B68052283F835207B683B
:1049F0001B687A681268126822F001021A600023AC
:104A000018460C37BD465DF8047B704780B586B00C
:104A100000AF78600023BB60924B1B68924AA2FBF8
:104A200003239B0A7B617B689B6D3B613B691B6831
:104A3000FB607B68DB6D08229A40FB681340002B0B
:104A40001AD07B681B681B6803F00403002B13D08B
:104A50007B681B687A681268126822F004021A6088
:104A60007B68DB6D08229A403B699A607B685B6DCE
:104A700043F001027B685A657B68DB6D01229A4036
:104A8000FB681340002B12D07B681B685B6903F046
:104A90008003002B0BD07B68DB6D01229A403B69C1
:104AA0009A607B685B6D43F002027B685A657B68A5
:104AB000DB6D04229A40FB681340002B12D07B6808
:104AC0001B681B6803F00203002B0BD07B68DB6DB7
:104AD00004229A403B699A607B685B6D43F0040254
:104AE0007B685A657B68DB6D10229A40FB68134037
:104AF000002B43D07B681B681B6803F00803002B66
:104B00003CD07B68DB6D10229A403B699A607B68E1
:104B10001B681B6803F48023002B18D07B681B687C
:104B20001B6803F40023002B08D17B681B6C002B4F
:104B300024D07B681B6C786898471FE07B689B6C6F
:104B4000002B1BD07B689B6C7868984716E07B68CD
:104B50001B681B6803F48073002B07D17B681B68FC
:104B60007A681268126822F008021A607B681B6C6F
:104B7000002B03D07B681B6C786898477B68DB6DE3
:104B800020229A40FB681340002B00F08E807B6847
:104B90001B681B6803F01003002B00F086807B6805
:104BA000DB6D20229A403B699A607B6893F8353030
:104BB000DBB2052B36D17B681B687A6812681268F5
:104BC00022F016021A607B681B687A6812685269C4
:104BD00022F080025A617B681B6C002B03D17B683A
:104BE0009B6C002B07D07B681B687A681268126880
:104BF00022F008021A607B68DB6D3F229A403B6915
:104C00009A607B68002283F834207B68012283F855
:104C100035207B681B6D002B7DD07B681B6D786811
:104C2000984778E07B681B681B6803F48023002B9F
:104C30001CD07B681B681B6803F40023002B08D181
:104C40007B685B6C002B30D07B685B6C7868984726
:104C50002BE07B68DB6B002B27D07B68DB6B7868F5
:104C6000984722E0C8110020B5814E1B7B681B6865
:104C70001B6803F48073002B0FD17B681B687A6874
:104C80001268126822F010021A607B68002283F812
:104C900034207B68012283F835207B68DB6B002B96
:104CA00003D07B68DB6B786898477B685B6D002B73
:104CB00032D07B685B6D03F00103002B22D07B6850
:104CC000052283F835207B681B687A6812681268B1
:104CD00022F001021A60BB680133BB607A6993421B
:104CE00007D87B681B681B6803F00103002BF2D117
:104CF00000E000BF7B68002283F834207B6801223B
:104D000083F835207B68DB6C002B05D07B68DB6C7F
:104D10007868984700E000BF1837BD4680BD00BFE7
:104D200080B485B000AF78607B681B68DBB2103B55
:104D3000144AA2FB03231B09FB60134AFB681344BC
:104D40001B781A467B68DA65FB68032B09D97B68F8
:104D50001B6823F47F7323F003031A1D7B689A6595
:104D600007E07B681B6823F47F7323F003037A68F2
:104D700093657B689B6D18461437BD465DF8047BD0
:104D8000704700BFABAAAAAA84FD000880B485B012
:104D900000AF78600023FB737B689B6ABB607B6815
:104DA0009B69002B1FD1BB68032B55D801A252F879
:104DB00023F000BFC54D0008D74D0008C54D0008C1
:104DC000594E00087B68DB6A03F08073002B45D0E6
:104DD0000123FB7342E07B68DB6AB3F1C07F3FD104
:104DE0000123FB733CE07B689B69B3F5005F21D135
:104DF000BB68032B36D801A252F823F00D4E0008F1
:104E0000134E00080D4E0008254E00080123FB73C9
:104E10002FE07B68DB6A03F08073002B24D0012332
:104E2000FB7321E07B68DB6AB3F1C07F1ED10123F5
:104E3000FB731BE0BB68022B02D9032B03D018E0E5
:104E40000123FB7315E07B68DB6A03F08073002BA2
:104E50000ED00123FB730BE000BF0AE000BF08E0A7
:104E600000BF06E000BF04E000BF02E000BF00E0BA
:104E700000BFFB7B18461437BD465DF8047B7047C6
:104E800080B489B000AF7860396000237B61002373
:104E90003B610023BB610023FB616BE10122FB69E5
:104EA00002FA03F37B613B681A687B6913403B613C
:104EB0003A697B699A4240F05A813B685B68022BF1
:104EC00003D03B685B68122B23D1FB69DA087B684F
:104ED000083253F82230BB61FB6903F007039B00E3
:104EE0000F2202FA03F3DB43BA691340BB613B684C
:104EF0001A69FB6903F007039B0002FA03F3BA691E
:104F00001343BB61FB69DA087B680832B96943F86F
:104F100022107B681B68BB61FB695B00032202FAFD
:104F200003F3DB43BA691340BB613B685B6803F082
:104F30000302FB695B0002FA03F3BA691343BB6126
:104F40007B68BA691A603B685B68012B0BD03B68D1
:104F50005B68022B07D03B685B68112B03D03B6872
:104F60005B68122B30D17B689B68BB61FB695B007F
:104F7000032202FA03F3DB43BA691340BB613B68C7
:104F8000DA68FB695B0002FA03F3BA691343BB6199
:104F90007B68BA699A607B685B68BB610122FB69C8
:104FA00002FA03F3DB43BA691340BB613B685B68F9
:104FB0001B0903F00102FB6902FA03F3BA69134308
:104FC000BB617B68BA695A607B68DB68BB61FB695F
:104FD0005B00032202FA03F3DB43BA691340BB61AF
:104FE0003B689A68FB695B0002FA03F3BA691343F2
:104FF000BB617B68BA69DA603B685B6803F0805329
:10500000002B00F0B4800023FB605F4A5E4B5B6CBA
:1050100043F4804353645C4B5B6C03F48043FB605C
:10502000FB685A4AFB699B08023352F82330BB6184
:10503000FB6903F003039B000F2202FA03F3DB4337
:10504000BA691340BB617B68514A93422BD07B689D
:10505000504A934225D07B684F4A93421FD07B68C9
:105060004E4A934219D07B684D4A934213D07B68D5
:105070004C4A93420DD07B684B4A934207D07B68E1
:105080004A4A934201D107230EE008230CE006238D
:105090000AE0052308E0042306E0032304E00223DA
:1050A00002E0012300E00023FA6902F0030292000B
:1050B0009340BA691343BB613449FB699B080233CF
:1050C000BA6941F823203A4B1B68BB613B69DB435B
:1050D000BA691340BB613B685B6803F48033002B03
:1050E00003D0BA693B691343BB61314ABB691360A2
:1050F0002F4B5B68BB613B69DB43BA691340BB6103
:105100003B685B6803F40033002B03D0BA693B694A
:105110001343BB61264ABB695360254B9B68BB6147
:105120003B69DB43BA691340BB613B685B6803F4CE
:105130008013002B03D0BA693B691343BB611C4A3F
:10514000BB6993601A4BDB68BB613B69DB43BA699F
:105150001340BB613B685B6803F40013002B03D072
:10516000BA693B691343BB61114ABB69D360FB69F0
:105170000133FB61FB690F2B7FF690AE00BF243734
:10518000BD465DF8047B704700380240003801409E
:10519000000002400004024000080240000C0240EF
:1051A000001002400014024000180240001C02409F
:1051B000003C014080B483B000AF78600B467B8038
:1051C00013467B707B78002B03D07A887B689A61CA
:1051D00003E07B881A047B689A6100BF0C37BD46E8
:1051E0005DF8047B7047000080B582B000AF0346D5
:1051F000FB80084B5A69FB881340002B06D0054AF8
:10520000FB885361FB88184600F006F800BF08379A
:10521000BD4680BD003C014080B483B000AF034672
:10522000FB8000BF0C37BD465DF8047B7047000073
:1052300080B584B000AF78600023FB600023BB60C2
:105240007B68002B01D10123C8E07B6893F83D30D7
:10525000DBB2002B06D17B68002283F83C20786803
:10526000FCF762FA7B68242283F83D207B681B6888
:105270007A681268126822F001021A6003F0C4FC16
:10528000B860BB68574AA2FB03239B0CFB607B689A
:105290001B68FA685A607B681A687B685B685249C9
:1052A0008B4202D8FB68013309E0FB684FF496712A
:1052B00001FB03F34D49A1FB03139B090133136267
:1052C0007B6819687B685B68474A934212D87B68A1
:1052D0005B685B00BA68B2FBF3F3C3F30B03032B09
:1052E00006D97B685B685B00BA68B2FBF3F345E004
:1052F000042343E07B689B68002B0FD17B685A68CE
:1053000013465B001344BA68B2FBF3F3C3F30B0319
:10531000002B0CBF01230023DBB210E07B685A682E
:1053200013469B0013449A001344BA68B2FBF3F38C
:10533000C3F30B03002B0CBF01230023DBB2002BB4
:1053400001D001231AE07B689B68002B0AD17B689F
:105350005A6813465B001344BA68B2FBF3F343F494
:1053600000430BE07B685A6813469B0013449A0085
:105370001344BA68B2FBF3F343F44043CB617B6858
:105380001B687A68D1697A68126A0A431A607B6876
:105390001B687A6811697A68D2680A439A607B68E8
:1053A0001B687A6851697A6892690A43DA607B6897
:1053B0001B687A681268126842F001021A607B6802
:1053C00000221A647B68202283F83D207B6800223B
:1053D0001A637B68002283F83E20002318461037AA
:1053E000BD4680BD83DE1B43A0860100D34D621005
:1053F00080B588B002AFF860084611461A460346E9
:105400007B810B463B811346FB8000237B61FEF7CB
:1054100071FD7861FB6893F83D30DBB2202B40F0E2
:10542000E7807B690093192301227449F86801F031
:1054300081FD0346002B01D00223DAE0FB6893F8DC
:105440003C30012B01D10223D3E0FB68012283F819
:105450003C20FB681B681B6803F00103012B07D08D
:10546000FB681B68FA681268126842F001021A6051
:10547000FB681B68FA681268126822F400621A60FE
:10548000FB68212283F83D20FB68402283F83E2000
:10549000FB6800221A64FB683A6A5A62FB68BA8C9D
:1054A0005A85FB68564ADA62FB685B8D9AB2FB68E4
:1054B0001A85F8883A8979897B690193BB6A0093D8
:1054C0000346F86801F074FB0346002B5ED0FB68CE
:1054D0001B6C042B05D1FB68002283F83C200123C0
:1054E00087E0FB68002283F83C20032381E07A698F
:1054F000B96AF86801F0DDFD0346002B0FD0FB68A8
:105500001B6C042B09D1FB681B68FA6812681268CF
:1055100042F400721A6001236BE0032369E0FB6828
:105520001A68FB685B6A581CF96848621B7813614B
:10553000FB681B8D013B9AB2FB681A85FB685B8D8B
:105540009BB2013B9AB2FB685A85FB681B685B699A
:1055500003F00403042B19D1FB681B8D002B15D01D
:10556000FB681A68FB685B6A581CF96848621B781C
:105570001361FB681B8D013B9AB2FB681A85FB68BF
:105580005B8D9BB2013B9AB2FB685A85FB681B8D11
:10559000002BACD17A69B96AF86801F0C7FD0346FF
:1055A000002B0FD0FB681B6C042B09D1FB681B6818
:1055B000FA681268126842F400721A60012318E057
:1055C000032316E0FB681B68FA681268126842F44D
:1055D00000721A60FB68202283F83D20FB680022DD
:1055E00083F83E20FB68002283F83C20002300E083
:1055F000022318461837BD4680BD00BF02001000C8
:105600000000FFFF80B58CB002AFF860084611467D
:105610001A4603467B810B463B811346FB800023E1
:105620007B62FEF767FC7862FB6893F83D30DBB283
:10563000202B40F012827B6A0093192301228449B7
:10564000F86801F077FC0346002B01D0022305E245
:10565000FB6893F83C30012B01D10223FEE1FB688B
:10566000012283F83C20FB681B681B6803F00103E0
:10567000012B07D0FB681B68FA681268126842F0B9
:1056800001021A60FB681B68FA681268126822F44B
:1056900000621A60FB68222283F83D20FB684022EA
:1056A00083F83E20FB6800221A64FB683A6B5A625A
:1056B000FB68BA8E5A85FB68664ADA62FB685B8DC6
:1056C0009AB2FB681A85F8883A8979897B6A0193CE
:1056D000BB6B00930346F86801F0FCFA0346002B0D
:1056E0000FD0FB681B6C042B05D1FB68002283F8EC
:1056F0003C200123B2E1FB68002283F83C20032315
:10570000ACE1FB681B8D002B13D100233B62FB68CF
:105710001B685B693B62FB681B689B693B623B6A79
:10572000FB681B68FA681268126842F400721A601B
:1057300080E1FB681B8D012B1BD1FB681B68FA689D
:105740001268126822F480621A600023FB61FB6811
:105750001B685B69FB61FB681B689B69FB61FB69FC
:10576000FB681B68FA681268126842F400721A60DB
:1057700060E1FB681B8D022B1BD1FB681B68FA687C
:105780001268126822F480621A60FB681B68FA686B
:105790001268126842F400621A600023BB61FB6861
:1057A0001B685B69BB61FB681B689B69BB61BB696C
:1057B00040E100237B61FB681B685B697B61FB68E0
:1057C0001B689B697B617B6934E1FB681B8D032B44
:1057D00000F2EB80FB681B8D012B27D17A6AB96B35
:1057E000F86801F0E0FC0346002B07D0FB681B6C57
:1057F000202B01D1032331E101232FE1FB685B6AF8
:10580000591CFA685162FA6812681269D2B21A70A9
:10581000FB681B8D013B9AB2FB681A85FB685B8DA8
:105820009BB2013B9AB2FB685A8503E1FB681B8D72
:10583000022B4AD17B6A0093BB6B00220649F868B1
:1058400001F078FB0346002B08D0032306E100BFDC
:10585000020010000000FFFF04000100FB681B684D
:10586000FA681268126842F400721A60FB685B6A98
:10587000591CFA685162FA6812681269D2B21A7039
:10588000FB681B8D013B9AB2FB681A85FB685B8D38
:105890009BB2013B9AB2FB685A85FB685B6A591C54
:1058A000FA685162FA6812681269D2B21A70FB681B
:1058B0001B8D013B9AB2FB681A85FB685B8D9BB21E
:1058C000013B9AB2FB685A85B4E07B6A0093BB6BDC
:1058D00000226449F86801F02DFB0346002B01D03B
:1058E0000323BBE0FB681B68FA681268126822F4A5
:1058F00080621A60FB685B6A591CFA685162FA6838
:1059000012681269D2B21A70FB681B8D013B9AB201
:10591000FB681A85FB685B8D9BB2013B9AB2FB6802
:105920005A857B6A0093BB6B00224E49F86801F0F0
:1059300001FB0346002B01D003238FE0FB681B68AB
:10594000FA681268126842F400721A60FB685B6AB7
:10595000591CFA685162FA6812681269D2B21A7058
:10596000FB681B8D013B9AB2FB681A85FB685B8D57
:105970009BB2013B9AB2FB685A85FB685B6A591C73
:10598000FA685162FA6812681269D2B21A70FB683A
:105990001B8D013B9AB2FB681A85FB685B8D9BB23D
:1059A000013B9AB2FB685A8544E07A6AB96BF868A1
:1059B00001F0F9FB0346002B07D0FB681B6C202B82
:1059C00001D103234AE0012348E0FB685B6A591CCC
:1059D000FA685162FA6812681269D2B21A70FB68EA
:1059E0001B8D013B9AB2FB681A85FB685B8D9BB2ED
:1059F000013B9AB2FB685A85FB681B685B6903F040
:105A00000403042B16D1FB685B6A591CFA685162C7
:105A1000FA6812681269D2B21A70FB681B8D013BDA
:105A20009AB2FB681A85FB685B8D9BB2013B9AB208
:105A3000FB685A85FB681B8D002B7FF4C6AEFB68A4
:105A4000202283F83D20FB68002283F83E20FB687B
:105A5000002283F83C20002300E002231846283768
:105A6000BD4680BD0400010080B586B000AF7860FF
:105A70007B681B689B697B617B681B685B693B611A
:105A80007B681B685B68FB607B6893F83E30DBB229
:105A9000BB60BB68102B02D0BB68402B72D13B6946
:105AA00003F00113002B08D0FB6803F40073002BF4
:105AB00003D0786800F0ECFB1AE03A69654B1340BC
:105AC000002B08D0FB6803F40073002B03D0786828
:105AD00000F049FC0CE03A695F4B1340002B07D003
:105AE000FB6803F40073002B02D0786800F04CFCD4
:105AF0007A695A4B1340002B22D03A69584B134015
:105B0000002B0DD0FB6803F48063002B08D03A69AA
